{
  "contractName": "LibrerySwap",
  "abi": [
    {
      "constant": true,
      "inputs": [
        {
          "name": "val1",
          "type": "uint128"
        },
        {
          "name": "val2",
          "type": "uint128"
        }
      ],
      "name": "SwapValues",
      "outputs": [
        {
          "name": "val3",
          "type": "uint128"
        },
        {
          "name": "val4",
          "type": "uint128"
        }
      ],
      "payable": false,
      "stateMutability": "pure",
      "type": "function"
    }
  ],
  "bytecode": "0x610135610026600b82828239805160001a60731461001957fe5b30600052607381538281f3fe73000000000000000000000000000000000000000030146080604052600436106100355760003560e01c8063178d25681461003a575b600080fd5b6100946004803603604081101561005057600080fd5b8101908080356fffffffffffffffffffffffffffffffff16906020019092919080356fffffffffffffffffffffffffffffffff1690602001909291905050506100f9565b60405180836fffffffffffffffffffffffffffffffff166fffffffffffffffffffffffffffffffff168152602001826fffffffffffffffffffffffffffffffff166fffffffffffffffffffffffffffffffff1681526020019250505060405180910390f35b600080829150839050925092905056fea165627a7a723058201e2297cab2f87950c71e6a7267398d3ce1ba179768e0eb878d9c42d93392d8030029",
  "source": "pragma solidity ^0.5.0;\r\n\r\nlibrary LibrerySwap {\r\n    function SwapValues(uint128 val1, uint128 val2) public pure\r\n    returns(uint128 val3, uint128 val4)\r\n    {\r\n    val3 = val2;\r\n    val4 = val1;\r\n    }\r\n}",
  "sourcePath": "C:\\Users\\Zenbook\\sortedArrayContract\\contracts\\LibrerySwap.sol",
  "compiler": {
    "name": "solc",
    "version": "0.5.8+commit.23d335f2.Emscripten.clang"
  },
  "schemaVersion": "3.0.16",
  "updatedAt": "2019-10-17T17:56:37.240Z",
  "devdoc": {
    "methods": {}
  },
  "userdoc": {
    "methods": {}
  }
}