{
  "contractName": "Supercontract",
  "abi": [
    {
      "inputs": [],
      "payable": false,
      "stateMutability": "nonpayable",
      "type": "constructor"
    },
    {
      "constant": false,
      "inputs": [
        {
          "name": "value",
          "type": "uint128"
        }
      ],
      "name": "AddValue",
      "outputs": [],
      "payable": false,
      "stateMutability": "nonpayable",
      "type": "function"
    },
    {
      "constant": false,
      "inputs": [],
      "name": "BublleSort",
      "outputs": [],
      "payable": false,
      "stateMutability": "nonpayable",
      "type": "function"
    },
    {
      "constant": false,
      "inputs": [],
      "name": "SelectionSort",
      "outputs": [],
      "payable": false,
      "stateMutability": "nonpayable",
      "type": "function"
    },
    {
      "constant": true,
      "inputs": [],
      "name": "length",
      "outputs": [
        {
          "name": "",
          "type": "uint256"
        }
      ],
      "payable": false,
      "stateMutability": "view",
      "type": "function"
    },
    {
      "constant": true,
      "inputs": [
        {
          "name": "value",
          "type": "int256"
        }
      ],
      "name": "search",
      "outputs": [
        {
          "name": "returnValue",
          "type": "int256"
        }
      ],
      "payable": false,
      "stateMutability": "view",
      "type": "function"
    }
  ],
  "bytecode": "0x608060405234801561001057600080fd5b5061094f806100206000396000f3fe608060405234801561001057600080fd5b50600436106100575760003560e01c80631f7b6d321461005c5780636ea662321461007a578063794fa6e014610084578063c32c2ebb146100c4578063cf1cc6f514610106575b600080fd5b610064610110565b6040518082815260200191505060405180910390f35b61008261011c565b005b6100c26004803603602081101561009a57600080fd5b8101908080356fffffffffffffffffffffffffffffffff1690602001909291905050506104e1565b005b6100f0600480360360208110156100da57600080fd5b810190808035906020019092919050505061054d565b6040518082815260200191505060405180910390f35b61010e610634565b005b60008080549050905090565b600080905060008090505b600080549050816fffffffffffffffffffffffffffffffff1610156104dd5760008090505b816fffffffffffffffffffffffffffffffff1660008054905003816fffffffffffffffffffffffffffffffff1610156104c5576000600182016fffffffffffffffffffffffffffffffff16815481106101a157fe5b90600052602060002090600291828204019190066010029054906101000a90046fffffffffffffffffffffffffffffffff166fffffffffffffffffffffffffffffffff166000826fffffffffffffffffffffffffffffffff168154811061020457fe5b90600052602060002090600291828204019190066010029054906101000a90046fffffffffffffffffffffffffffffffff166fffffffffffffffffffffffffffffffff1611156104b85773__LibrerySwap___________________________63178d25686000836fffffffffffffffffffffffffffffffff168154811061028757fe5b90600052602060002090600291828204019190066010029054906101000a90046fffffffffffffffffffffffffffffffff166000600185016fffffffffffffffffffffffffffffffff16815481106102db57fe5b90600052602060002090600291828204019190066010029054906101000a90046fffffffffffffffffffffffffffffffff166040518363ffffffff1660e01b815260040180836fffffffffffffffffffffffffffffffff166fffffffffffffffffffffffffffffffff168152602001826fffffffffffffffffffffffffffffffff166fffffffffffffffffffffffffffffffff16815260200192505050604080518083038186803b15801561038f57600080fd5b505af41580156103a3573d6000803e3d6000fd5b505050506040513d60408110156103b957600080fd5b8101908080519060200190929190805190602001909291905050506000836fffffffffffffffffffffffffffffffff16815481106103f357fe5b90600052602060002090600291828204019190066010026000600186016fffffffffffffffffffffffffffffffff168154811061042c57fe5b90600052602060002090600291828204019190066010028491906101000a8154816fffffffffffffffffffffffffffffffff02191690836fffffffffffffffffffffffffffffffff1602179055508391906101000a8154816fffffffffffffffffffffffffffffffff02191690836fffffffffffffffffffffffffffffffff1602179055505050600192505b808060010191505061014c565b50816104d0576104dd565b8080600101915050610127565b5050565b600081908060018154018082558091505090600182039060005260206000209060029182820401919006601002909192909190916101000a8154816fffffffffffffffffffffffffffffffff02191690836fffffffffffffffffffffffffffffffff1602179055505050565b60007fffffffffffffffffffffffffffffffffffffffffffffffffffffffffffffffff905060008090505b600080549050816fffffffffffffffffffffffffffffffff16101561062e57600080826fffffffffffffffffffffffffffffffff16815481106105b757fe5b90600052602060002090600291828204019190066010029054906101000a90046fffffffffffffffffffffffffffffffff166fffffffffffffffffffffffffffffffff1690508381141561062057816fffffffffffffffffffffffffffffffff1692505061062e565b508080600101915050610578565b50919050565b6001600061064291906108d6565b60008090505b600080549050816fffffffffffffffffffffffffffffffff1610156108d357600080826fffffffffffffffffffffffffffffffff168154811061068757fe5b90600052602060002090600291828204019190066010029054906101000a90046fffffffffffffffffffffffffffffffff169050600082905060008390505b836fffffffffffffffffffffffffffffffff1660008054905003816fffffffffffffffffffffffffffffffff16101561078e57600080826fffffffffffffffffffffffffffffffff168154811061071957fe5b90600052602060002090600291828204019190066010029054906101000a90046fffffffffffffffffffffffffffffffff169050836fffffffffffffffffffffffffffffffff16816fffffffffffffffffffffffffffffffff161015610780578390508192505b5080806001019150506106c6565b5073__LibrerySwap___________________________63178d25686000856fffffffffffffffffffffffffffffffff16815481106107c857fe5b90600052602060002090600291828204019190066010029054906101000a90046fffffffffffffffffffffffffffffffff16846040518363ffffffff1660e01b815260040180836fffffffffffffffffffffffffffffffff166fffffffffffffffffffffffffffffffff168152602001826fffffffffffffffffffffffffffffffff166fffffffffffffffffffffffffffffffff16815260200192505050604080518083038186803b15801561087d57600080fd5b505af4158015610891573d6000803e3d6000fd5b505050506040513d60408110156108a757600080fd5b810190808051906020019092919080519060200190929190505050505050508080600101915050610648565b50565b5080546000825560010160029004906000526020600020908101906108fb91906108fe565b50565b61092091905b8082111561091c576000816000905550600101610904565b5090565b9056fea165627a7a72305820b4e700b716d95349a0b53de116cf4214ce73e235ee265ff2eb90e13adaf5470f0029",
  "source": "pragma solidity ^0.5.0;\n\n\nimport \"../contracts/LibrerySwap.sol\";\n\ncontract Supercontract {\n//value a () public pure returns\n  uint128[] _values;\n  uint128[] _newValues;\n\n  constructor() public {\n  }\n\n  function AddValue(uint128 value) public {\n    _values.push(value);\n  }\n\n  function BublleSort() public {\n    //https://ru.wikipedia.org/wiki/%D0%A1%D0%BE%D1%80%D1%82%D0%B8%D1%80%D0%BE%D0%B2%D0%BA%D0%B0_%D0%BF%D1%83%D0%B7%D1%8B%D1%80%D1%8C%D0%BA%D0%BE%D0%BC\n    bool hasSwaps = false;\nfor (uint128 i = 0; i < _values.length; i ++) {\n  for (uint128 j = 0; j < _values.length - i; j++) {\n    if(_values[j] > _values[j + 1]){\n      (_values[j], _values[j + 1]) = LibrerySwap.SwapValues(_values[j], _values[j + 1]);\n      hasSwaps = true;\n    }\n  }\n  if(!hasSwaps) break;\n}\n}\n\n\nfunction SelectionSort() public {\n  delete _newValues;\n//TODO: https://dotnetfiddle.net/Anbtdf\n  for (uint128 i = 0; i < _values.length; i++) {\n    uint128 min = _values[i];\n    uint128 minIndex = i;\n    for (uint128 j = i; j < (_values.length - i); j++) {\n      uint128 tmp = _values[j];\n      if(tmp < min) {\n        tmp = min; //значение элемента потенциально меньшего\n        minIndex = j; //индекс элемента потенциально меньшего\n      }\n    }\n   LibrerySwap.SwapValues(_values[i], min);\n  }\n}\n\nfunction length() public view returns(uint256) {\n  return _values.length;\n}\n\n  function search(int256 value ) public view returns (int256 returnValue) {\n   // if (value > 0) return value;\n   returnValue = -1;\n    for (uint128 index = 0; (index < _values.length); index++) {\n      //\n      int256 tmp = (_values[index]);\n      if(tmp == value){\n        returnValue = (index);\n        break;\n      }\n    }\n  }\n}",
  "sourcePath": "C:/Users/Zenbook/sortedArrayContract/contracts/Supercontract.sol",
  "compiler": {
    "name": "solc",
    "version": "0.5.8+commit.23d335f2.Emscripten.clang"
  },
  "schemaVersion": "3.0.16",
  "updatedAt": "2019-10-17T17:55:28.254Z",
  "devdoc": {
    "methods": {}
  },
  "userdoc": {
    "methods": {}
  }
}