{
  "contractName": "Supercontract",
  "abi": [
    {
      "inputs": [],
      "payable": false,
      "stateMutability": "nonpayable",
      "type": "constructor"
    },
    {
      "constant": false,
      "inputs": [
        {
          "name": "value",
          "type": "uint128"
        }
      ],
      "name": "AddValue",
      "outputs": [],
      "payable": false,
      "stateMutability": "nonpayable",
      "type": "function"
    },
    {
      "constant": false,
      "inputs": [],
      "name": "BublleSort",
      "outputs": [],
      "payable": false,
      "stateMutability": "nonpayable",
      "type": "function"
    },
    {
      "constant": false,
      "inputs": [],
      "name": "SelectionSort",
      "outputs": [],
      "payable": false,
      "stateMutability": "nonpayable",
      "type": "function"
    },
    {
      "constant": true,
      "inputs": [
        {
          "name": "val1",
          "type": "uint128"
        },
        {
          "name": "val2",
          "type": "uint128"
        }
      ],
      "name": "Swap",
      "outputs": [
        {
          "name": "val3",
          "type": "uint128"
        },
        {
          "name": "val4",
          "type": "uint128"
        }
      ],
      "payable": false,
      "stateMutability": "pure",
      "type": "function"
    },
    {
      "constant": true,
      "inputs": [],
      "name": "length",
      "outputs": [
        {
          "name": "",
          "type": "uint256"
        }
      ],
      "payable": false,
      "stateMutability": "view",
      "type": "function"
    },
    {
      "constant": true,
      "inputs": [
        {
          "name": "value",
          "type": "int256"
        }
      ],
      "name": "search",
      "outputs": [
        {
          "name": "returnValue",
          "type": "int256"
        }
      ],
      "payable": false,
      "stateMutability": "view",
      "type": "function"
    }
  ],
  "bytecode": "0x608060405234801561001057600080fd5b5061078d806100206000396000f3fe608060405234801561001057600080fd5b50600436106100625760003560e01c80631f7b6d32146100675780636ea6623214610085578063794fa6e01461008f578063a3a1102a146100cf578063c32c2ebb1461018e578063cf1cc6f5146101d0575b600080fd5b61006f6101da565b6040518082815260200191505060405180910390f35b61008d6101e6565b005b6100cd600480360360208110156100a557600080fd5b8101908080356fffffffffffffffffffffffffffffffff1690602001909291905050506104d2565b005b610129600480360360408110156100e557600080fd5b8101908080356fffffffffffffffffffffffffffffffff16906020019092919080356fffffffffffffffffffffffffffffffff16906020019092919050505061053e565b60405180836fffffffffffffffffffffffffffffffff166fffffffffffffffffffffffffffffffff168152602001826fffffffffffffffffffffffffffffffff166fffffffffffffffffffffffffffffffff1681526020019250505060405180910390f35b6101ba600480360360208110156101a457600080fd5b810190808035906020019092919050505061054e565b6040518082815260200191505060405180910390f35b6101d8610635565b005b60008080549050905090565b600080905060008090505b600080549050816fffffffffffffffffffffffffffffffff1610156104ce5760008090505b816fffffffffffffffffffffffffffffffff1660008054905003816fffffffffffffffffffffffffffffffff1610156104b6576000600182016fffffffffffffffffffffffffffffffff168154811061026b57fe5b90600052602060002090600291828204019190066010029054906101000a90046fffffffffffffffffffffffffffffffff166fffffffffffffffffffffffffffffffff166000826fffffffffffffffffffffffffffffffff16815481106102ce57fe5b90600052602060002090600291828204019190066010029054906101000a90046fffffffffffffffffffffffffffffffff166fffffffffffffffffffffffffffffffff1611156104a9576103c56000826fffffffffffffffffffffffffffffffff168154811061033a57fe5b90600052602060002090600291828204019190066010029054906101000a90046fffffffffffffffffffffffffffffffff166000600184016fffffffffffffffffffffffffffffffff168154811061038e57fe5b90600052602060002090600291828204019190066010029054906101000a90046fffffffffffffffffffffffffffffffff1661053e565b6000836fffffffffffffffffffffffffffffffff16815481106103e457fe5b90600052602060002090600291828204019190066010026000600186016fffffffffffffffffffffffffffffffff168154811061041d57fe5b90600052602060002090600291828204019190066010028491906101000a8154816fffffffffffffffffffffffffffffffff02191690836fffffffffffffffffffffffffffffffff1602179055508391906101000a8154816fffffffffffffffffffffffffffffffff02191690836fffffffffffffffffffffffffffffffff1602179055505050600192505b8080600101915050610216565b50816104c1576104ce565b80806001019150506101f1565b5050565b600081908060018154018082558091505090600182039060005260206000209060029182820401919006601002909192909190916101000a8154816fffffffffffffffffffffffffffffffff02191690836fffffffffffffffffffffffffffffffff1602179055505050565b6000808291508390509250929050565b60007fffffffffffffffffffffffffffffffffffffffffffffffffffffffffffffffff905060008090505b600080549050816fffffffffffffffffffffffffffffffff16101561062f57600080826fffffffffffffffffffffffffffffffff16815481106105b857fe5b90600052602060002090600291828204019190066010029054906101000a90046fffffffffffffffffffffffffffffffff166fffffffffffffffffffffffffffffffff1690508381141561062157816fffffffffffffffffffffffffffffffff1692505061062f565b508080600101915050610579565b50919050565b600160006106439190610714565b60008090505b600080549050816fffffffffffffffffffffffffffffffff1610156107115760008190505b816fffffffffffffffffffffffffffffffff1660008054905003816fffffffffffffffffffffffffffffffff16101561070357600080826fffffffffffffffffffffffffffffffff16815481106106c157fe5b90600052602060002090600291828204019190066010029054906101000a90046fffffffffffffffffffffffffffffffff16905050808060010191505061066e565b508080600101915050610649565b50565b508054600082556001016002900490600052602060002090810190610739919061073c565b50565b61075e91905b8082111561075a576000816000905550600101610742565b5090565b9056fea165627a7a72305820cccadd178f9202805d66684543dd9d2d9b610090919111b8aed88c7e21f93acb0029",
  "source": "pragma solidity ^0.5.0;\n\n\ncontract Supercontract {\n//value a () public pure returns\n  uint128[] _values;\n  uint128[] _newValues;\n\n  constructor() public {\n  }\n\n  function AddValue(uint128 value) public {\n    _values.push(value);\n  }\n\n  function BublleSort() public {\n    //https://ru.wikipedia.org/wiki/%D0%A1%D0%BE%D1%80%D1%82%D0%B8%D1%80%D0%BE%D0%B2%D0%BA%D0%B0_%D0%BF%D1%83%D0%B7%D1%8B%D1%80%D1%8C%D0%BA%D0%BE%D0%BC\n    bool hasSwaps = false;\nfor (uint128 i = 0; i < _values.length; i ++) {\n  for (uint128 j = 0; j < _values.length - i; j++) {\n    if(_values[j] > _values[j + 1]){\n      (_values[j], _values[j + 1]) = Swap(_values[j], _values[j + 1]);\n      hasSwaps = true;\n    }\n  }\n  if(!hasSwaps) break;\n}\n}\n\n\nfunction SelectionSort() public {\n  delete _newValues;\n//TODO: https://dotnetfiddle.net/Anbtdf\n  for (uint128 i = 0; i < _values.length; i++) {\n    for (uint128 j = i; j < (_values.length - i); j++) {\n      uint128 tmp = _values[j];\n    //  if(tmp<)\n    }\n  }\n}\n\n  //  for (uint128 i = 1; i < _values.length; i ++ ) {\n    // int256 x = (_values[i]);\n      //if (x < tmpvalue) {\n      // (_values[i - 1], _values[i]) = Swap(_values[i - 1], _values[i]);\n     // }\n    //}\n  //}\n\nfunction Swap(uint128 val1, uint128 val2) public pure\nreturns(uint128 val3, uint128 val4)\n{\n  val3 = val2;\n  val4 = val1;\n}\nfunction length() public view returns(uint256) {\n  return _values.length;\n}\n  function search(int256 value ) public view returns (int256 returnValue) {\n   // if (value > 0) return value;\n   returnValue = -1;\n    for (uint128 index = 0; (index < _values.length); index++) {\n      //\n      int256 tmp = (_values[index]);\n      if(tmp == value){\n        returnValue = (index);\n        break;\n      }\n    }\n  }\n}",
  "sourcePath": "C:/Users/Zenbook/sortedArrayContract/contracts/Supercontract.sol",
  "compiler": {
    "name": "solc",
    "version": "0.5.8+commit.23d335f2.Emscripten.clang"
  },
  "schemaVersion": "3.0.16",
  "updatedAt": "2019-10-17T13:06:20.586Z",
  "devdoc": {
    "methods": {}
  },
  "userdoc": {
    "methods": {}
  }
}